S011000068656C6C6F5F61726D2E7372656360
S3150800000000800020C1000008000000000000000079
S3150800001000000000000000000000000000000000D2
S3150800002000000000000000000000000000000000C2
S3150800003000000000000000000000000000000000B2
S3150800004000000000000000000000000000000000A2
S315080000500000000000000000000000000000000092
S315080000600000000000000000000000000000000082
S315080000700000000000000000000000000000000072
S315080000800000000000000000000000000000000062
S315080000900000000000000000000000000000000052
S315080000A00000000000000000000000000000000042
S315080000B00000000000000000000000000000000032
S309080000C0FFE7FEE763
S306080000C455D8
S705080000C131
